{"abi":[{"type":"constructor","inputs":[{"name":"_greeting","type":"string","internalType":"string"},{"name":"_counterAddress","type":"address","internalType":"address"}],"stateMutability":"nonpayable"},{"type":"function","name":"getCount","inputs":[],"outputs":[{"name":"","type":"uint256","internalType":"uint256"}],"stateMutability":"view"},{"type":"function","name":"getMessageCount","inputs":[],"outputs":[{"name":"","type":"uint256","internalType":"uint256"}],"stateMutability":"nonpayable"},{"type":"function","name":"greet","inputs":[],"outputs":[{"name":"","type":"string","internalType":"string"}],"stateMutability":"view"},{"type":"function","name":"setGreeting","inputs":[{"name":"_greeting","type":"string","internalType":"string"}],"outputs":[],"stateMutability":"nonpayable"},{"type":"event","name":"CountRetrieved","inputs":[{"name":"user","type":"address","indexed":true,"internalType":"address"},{"name":"count","type":"uint256","indexed":false,"internalType":"uint256"}],"anonymous":false},{"type":"event","name":"GreetingUpdated","inputs":[{"name":"user","type":"address","indexed":true,"internalType":"address"},{"name":"oldGreeting","type":"string","indexed":false,"internalType":"string"},{"name":"newGreeting","type":"string","indexed":false,"internalType":"string"}],"anonymous":false}],"bytecode":{"object":"0x608060405234801561001057600080fd5b50604051610ee8380380610ee883398101604081905261002f91610155565b6100516040518060600160405280602e8152602001610eba602e913983610091565b33600090815260208190526040902061006a838261029f565b50600180546001600160a01b0319166001600160a01b0392909216919091179055506103b8565b6100da82826040516024016100a792919061038a565b60408051601f198184030181529190526020810180516001600160e01b03908116634b5c427760e01b179091526100de16565b5050565b80516a636f6e736f6c652e6c6f67602083016000808483855afa5050505050565b634e487b7160e01b600052604160045260246000fd5b60005b83811015610130578181015183820152602001610118565b50506000910152565b80516001600160a01b038116811461015057600080fd5b919050565b6000806040838503121561016857600080fd5b82516001600160401b038082111561017f57600080fd5b818501915085601f83011261019357600080fd5b8151818111156101a5576101a56100ff565b604051601f8201601f19908116603f011681019083821181831017156101cd576101cd6100ff565b816040528281528860208487010111156101e657600080fd5b6101f7836020830160208801610115565b809650505050505061020b60208401610139565b90509250929050565b600181811c9082168061022857607f821691505b60208210810361024857634e487b7160e01b600052602260045260246000fd5b50919050565b601f82111561029a576000816000526020600020601f850160051c810160208610156102775750805b601f850160051c820191505b8181101561029657828155600101610283565b5050505b505050565b81516001600160401b038111156102b8576102b86100ff565b6102cc816102c68454610214565b8461024e565b602080601f83116001811461030157600084156102e95750858301515b600019600386901b1c1916600185901b178555610296565b600085815260208120601f198616915b8281101561033057888601518255948401946001909101908401610311565b508582101561034e5787850151600019600388901b60f8161c191681555b5050505050600190811b01905550565b60008151808452610376816020860160208601610115565b601f01601f19169290920160200192915050565b60408152600061039d604083018561035e565b82810360208401526103af818561035e565b95945050505050565b610af3806103c76000396000f3fe608060405234801561001057600080fd5b506004361061004c5760003560e01c80633193391614610051578063a41368621461006c578063a87d942c14610081578063cfae321714610089575b600080fd5b61005961009e565b6040519081526020015b60405180910390f35b61007f61007a36600461071a565b61014c565b005b61005961048b565b6100916104fd565b6040516100639190610811565b600154604051634f0cd27b60e01b815233600482015260009182916001600160a01b0390911690634f0cd27b90602401602060405180830381865afa1580156100eb573d6000803e3d6000fd5b505050506040513d601f19601f8201168201806040525081019061010f919061082b565b60405181815290915033907f6204fe1fed22e48fa5d49c3b096a5c7045fe92b8e3ddf091340ff7c484b9ed909060200160405180910390a2919050565b60008151116101a15760405162461bcd60e51b815260206004820152601860248201527f4772656574696e672063616e6e6f7420626520656d7074790000000000000000604482015260640160405180910390fd5b604080518082018252601b81527f43757272656e74206772656574696e6720666f722025733a20257300000000006020808301919091523360008181529182905292902080546102799391906101f690610844565b80601f016020809104026020016040519081016040528092919081815260200182805461022290610844565b801561026f5780601f106102445761010080835404028352916020019161026f565b820191906000526020600020905b81548152906001019060200180831161025257829003601f168201915b505050505061060d565b6102ab6040518060400160405280601081526020016f4e6577206772656574696e673a20257360801b81525082610659565b336000818152602081905260409081902090517fac23bbf1dfe4fe7c4ec7d5851c97ad91e40e71eba310b5b101902299ce7eeb33916102eb91859061087e565b60405180910390a233600090815260208190526040902061030c8282610970565b506103f86040518060400160405280601881526020017f4e4557204e4557204e4557206772656574696e673a2025730000000000000000815250600080336001600160a01b03166001600160a01b03168152602001908152602001600020805461037590610844565b80601f01602080910402602001604051908101604052809291908181526020018280546103a190610844565b80156103ee5780601f106103c3576101008083540402835291602001916103ee565b820191906000526020600020905b8154815290600101906020018083116103d157829003601f168201915b5050505050610659565b61042b60405180604001604052806011815260200170312e204772656574657220666f7220257360781b815250336106a2565b600154604051636d1c4d2760e11b81523360048201526001600160a01b039091169063da389a4e90602401600060405180830381600087803b15801561047057600080fd5b505af1158015610484573d6000803e3d6000fd5b5050505050565b600154604051634f0cd27b60e01b81523360048201526000916001600160a01b031690634f0cd27b90602401602060405180830381865afa1580156104d4573d6000803e3d6000fd5b505050506040513d601f19601f820116820180604052508101906104f8919061082b565b905090565b3360009081526020819052604081208054606092919061051c90610844565b80601f016020809104026020016040519081016040528092919081815260200182805461054890610844565b80156105955780601f1061056a57610100808354040283529160200191610595565b820191906000526020600020905b81548152906001019060200180831161057857829003601f168201915b505050505090506105cf60405180604001604052806011815260200170322e204772656574657220666f7220257360781b815250336106a2565b805160000361060857505060408051808201909152601481527348656c6c6f2c2066726f6d20477265657465722160601b602082015290565b919050565b61065483838360405160240161062593929190610a30565b60408051601f198184030181529190526020810180516001600160e01b031663e0e9ad4f60e01b1790526106e3565b505050565b61069e828260405160240161066f929190610a6e565b60408051601f198184030181529190526020810180516001600160e01b0316634b5c427760e01b1790526106e3565b5050565b61069e82826040516024016106b8929190610a93565b60408051601f198184030181529190526020810180516001600160e01b031663319af33360e01b1790525b80516a636f6e736f6c652e6c6f67602083016000808483855afa5050505050565b634e487b7160e01b600052604160045260246000fd5b60006020828403121561072c57600080fd5b813567ffffffffffffffff8082111561074457600080fd5b818401915084601f83011261075857600080fd5b81358181111561076a5761076a610704565b604051601f8201601f19908116603f0116810190838211818310171561079257610792610704565b816040528281528760208487010111156107ab57600080fd5b826020860160208301376000928101602001929092525095945050505050565b6000815180845260005b818110156107f1576020818501810151868301820152016107d5565b506000602082860101526020601f19601f83011685010191505092915050565b60208152600061082460208301846107cb565b9392505050565b60006020828403121561083d57600080fd5b5051919050565b600181811c9082168061085857607f821691505b60208210810361087857634e487b7160e01b600052602260045260246000fd5b50919050565b60408152600080845461089081610844565b80604086015260606001808416600081146108b257600181146108ce57610900565b60ff1985166060890152606084151560051b8901019550610900565b8960005260208060002060005b868110156108f65781548b82018701529084019082016108db565b8a01606001975050505b5050505050828103602084015261091781856107cb565b95945050505050565b601f821115610654576000816000526020600020601f850160051c810160208610156109495750805b601f850160051c820191505b8181101561096857828155600101610955565b505050505050565b815167ffffffffffffffff81111561098a5761098a610704565b61099e816109988454610844565b84610920565b602080601f8311600181146109d357600084156109bb5750858301515b600019600386901b1c1916600185901b178555610968565b600085815260208120601f198616915b82811015610a02578886015182559484019460019091019084016109e3565b5085821015610a205787850151600019600388901b60f8161c191681555b5050505050600190811b01905550565b606081526000610a4360608301866107cb565b6001600160a01b03851660208401528281036040840152610a6481856107cb565b9695505050505050565b604081526000610a8160408301856107cb565b828103602084015261091781856107cb565b604081526000610aa660408301856107cb565b905060018060a01b0383166020830152939250505056fea26469706673582212200bcf14b28890ce9a845f7892239df745ce40830f61265d0e26d73f76c872910664736f6c63430008190033404040204465706c6f79696e672061204772656574657220776974682064656661756c74206772656574696e673a","linkReferences":{}},"methodIdentifiers":{"getCount()":"a87d942c","getMessageCount()":"31933916","greet()":"cfae3217","setGreeting(string)":"a4136862"},"id":24}