{"abi":[{"type":"constructor","inputs":[{"name":"_greeting","type":"string","internalType":"string"},{"name":"_counterAddress","type":"address","internalType":"address"}],"stateMutability":"nonpayable"},{"type":"function","name":"getCount","inputs":[],"outputs":[{"name":"","type":"uint256","internalType":"uint256"}],"stateMutability":"view"},{"type":"function","name":"getMessageCount","inputs":[],"outputs":[{"name":"","type":"uint256","internalType":"uint256"}],"stateMutability":"nonpayable"},{"type":"function","name":"greet","inputs":[],"outputs":[{"name":"","type":"string","internalType":"string"}],"stateMutability":"view"},{"type":"function","name":"setGreeting","inputs":[{"name":"_greeting","type":"string","internalType":"string"}],"outputs":[],"stateMutability":"nonpayable"},{"type":"event","name":"CountRetrieved","inputs":[{"name":"user","type":"address","indexed":true,"internalType":"address"},{"name":"count","type":"uint256","indexed":false,"internalType":"uint256"}],"anonymous":false},{"type":"event","name":"GreetingUpdated","inputs":[{"name":"user","type":"address","indexed":true,"internalType":"address"},{"name":"oldGreeting","type":"string","indexed":false,"internalType":"string"},{"name":"newGreeting","type":"string","indexed":false,"internalType":"string"}],"anonymous":false}],"bytecode":{"object":"0x608060405234801561001057600080fd5b50604051610c45380380610c4583398101604081905261002f91610155565b6100516040518060600160405280602e8152602001610c17602e913983610091565b33600090815260208190526040902061006a838261029f565b50600180546001600160a01b0319166001600160a01b0392909216919091179055506103b8565b6100da82826040516024016100a792919061038a565b60408051601f198184030181529190526020810180516001600160e01b03908116634b5c427760e01b179091526100de16565b5050565b80516a636f6e736f6c652e6c6f67602083016000808483855afa5050505050565b634e487b7160e01b600052604160045260246000fd5b60005b83811015610130578181015183820152602001610118565b50506000910152565b80516001600160a01b038116811461015057600080fd5b919050565b6000806040838503121561016857600080fd5b82516001600160401b038082111561017f57600080fd5b818501915085601f83011261019357600080fd5b8151818111156101a5576101a56100ff565b604051601f8201601f19908116603f011681019083821181831017156101cd576101cd6100ff565b816040528281528860208487010111156101e657600080fd5b6101f7836020830160208801610115565b809650505050505061020b60208401610139565b90509250929050565b600181811c9082168061022857607f821691505b60208210810361024857634e487b7160e01b600052602260045260246000fd5b50919050565b601f82111561029a576000816000526020600020601f850160051c810160208610156102775750805b601f850160051c820191505b8181101561029657828155600101610283565b5050505b505050565b81516001600160401b038111156102b8576102b86100ff565b6102cc816102c68454610214565b8461024e565b602080601f83116001811461030157600084156102e95750858301515b600019600386901b1c1916600185901b178555610296565b600085815260208120601f198616915b8281101561033057888601518255948401946001909101908401610311565b508582101561034e5787850151600019600388901b60f8161c191681555b5050505050600190811b01905550565b60008151808452610376816020860160208601610115565b601f01601f19169290920160200192915050565b60408152600061039d604083018561035e565b82810360208401526103af818561035e565b95945050505050565b610850806103c76000396000f3fe608060405234801561001057600080fd5b506004361061004c5760003560e01c80633193391614610051578063a41368621461006c578063a87d942c14610081578063cfae321714610089575b600080fd5b61005961009e565b6040519081526020015b60405180910390f35b61007f61007a36600461049a565b61014c565b005b6100596102c8565b61009161033a565b6040516100639190610591565b600154604051634f0cd27b60e01b815233600482015260009182916001600160a01b0390911690634f0cd27b90602401602060405180830381865afa1580156100eb573d6000803e3d6000fd5b505050506040513d601f19601f8201168201806040525081019061010f91906105ab565b60405181815290915033907f6204fe1fed22e48fa5d49c3b096a5c7045fe92b8e3ddf091340ff7c484b9ed909060200160405180910390a2919050565b6102066040518060600160405280602781526020016107f4602791393360009081526020819052604090208054610182906105c4565b80601f01602080910402602001604051908101604052809291908181526020018280546101ae906105c4565b80156101fb5780601f106101d0576101008083540402835291602001916101fb565b820191906000526020600020905b8154815290600101906020018083116101de57829003601f168201915b505050505083610417565b336000818152602081905260409081902090517fac23bbf1dfe4fe7c4ec7d5851c97ad91e40e71eba310b5b101902299ce7eeb33916102469185906105fe565b60405180910390a233600090815260208190526040902061026782826106f0565b50600154604051636d1c4d2760e11b81523360048201526001600160a01b039091169063da389a4e90602401600060405180830381600087803b1580156102ad57600080fd5b505af11580156102c1573d6000803e3d6000fd5b5050505050565b600154604051634f0cd27b60e01b81523360048201526000916001600160a01b031690634f0cd27b90602401602060405180830381865afa158015610311573d6000803e3d6000fd5b505050506040513d601f19601f8201168201806040525081019061033591906105ab565b905090565b33600090815260208190526040812080546060929190610359906105c4565b80601f0160208091040260200160405190810160405280929190818152602001828054610385906105c4565b80156103d25780601f106103a7576101008083540402835291602001916103d2565b820191906000526020600020905b8154815290600101906020018083116103b557829003601f168201915b50505050509050805160000361041257505060408051808201909152601481527348656c6c6f2c2066726f6d20477265657465722160601b602082015290565b919050565b61045e83838360405160240161042f939291906107b0565b60408051601f198184030181529190526020810180516001600160e01b0316632ced7cef60e01b179052610463565b505050565b80516a636f6e736f6c652e6c6f67602083016000808483855afa5050505050565b634e487b7160e01b600052604160045260246000fd5b6000602082840312156104ac57600080fd5b813567ffffffffffffffff808211156104c457600080fd5b818401915084601f8301126104d857600080fd5b8135818111156104ea576104ea610484565b604051601f8201601f19908116603f0116810190838211818310171561051257610512610484565b8160405282815287602084870101111561052b57600080fd5b826020860160208301376000928101602001929092525095945050505050565b6000815180845260005b8181101561057157602081850181015186830182015201610555565b506000602082860101526020601f19601f83011685010191505092915050565b6020815260006105a4602083018461054b565b9392505050565b6000602082840312156105bd57600080fd5b5051919050565b600181811c908216806105d857607f821691505b6020821081036105f857634e487b7160e01b600052602260045260246000fd5b50919050565b604081526000808454610610816105c4565b8060408601526060600180841660008114610632576001811461064e57610680565b60ff1985166060890152606084151560051b8901019550610680565b8960005260208060002060005b868110156106765781548b820187015290840190820161065b565b8a01606001975050505b50505050508281036020840152610697818561054b565b95945050505050565b601f82111561045e576000816000526020600020601f850160051c810160208610156106c95750805b601f850160051c820191505b818110156106e8578281556001016106d5565b505050505050565b815167ffffffffffffffff81111561070a5761070a610484565b61071e8161071884546105c4565b846106a0565b602080601f831160018114610753576000841561073b5750858301515b600019600386901b1c1916600185901b1785556106e8565b600085815260208120601f198616915b8281101561078257888601518255948401946001909101908401610763565b50858210156107a05787850151600019600388901b60f8161c191681555b5050505050600190811b01905550565b6060815260006107c3606083018661054b565b82810360208401526107d5818661054b565b905082810360408401526107e9818561054b565b969550505050505056fe404040204368616e67696e67206772656574696e672066726f6d202725732720746f2027257327a2646970667358221220a69a6a8413d4a612a881730d75a8bb3c8f72111c59984bce0ecfb68a87f3774564736f6c63430008190033404040204465706c6f79696e672061204772656574657220776974682064656661756c74206772656574696e673a","linkReferences":{}},"methodIdentifiers":{"getCount()":"a87d942c","getMessageCount()":"31933916","greet()":"cfae3217","setGreeting(string)":"a4136862"},"id":21}